{
  "contractName": "FACSync",
  "abi": [
    {
      "constant": true,
      "inputs": [
        {
          "name": "",
          "type": "address"
        }
      ],
      "name": "val_address",
      "outputs": [
        {
          "name": "",
          "type": "bool"
        }
      ],
      "payable": false,
      "stateMutability": "view",
      "type": "function"
    },
    {
      "constant": true,
      "inputs": [],
      "name": "cur_ts",
      "outputs": [
        {
          "name": "",
          "type": "uint256"
        }
      ],
      "payable": false,
      "stateMutability": "view",
      "type": "function"
    },
    {
      "constant": true,
      "inputs": [],
      "name": "cur_exe",
      "outputs": [
        {
          "name": "",
          "type": "address"
        }
      ],
      "payable": false,
      "stateMutability": "view",
      "type": "function"
    },
    {
      "constant": true,
      "inputs": [],
      "name": "ipfslog",
      "outputs": [
        {
          "name": "",
          "type": "address"
        }
      ],
      "payable": false,
      "stateMutability": "view",
      "type": "function"
    },
    {
      "constant": true,
      "inputs": [
        {
          "name": "",
          "type": "uint256"
        }
      ],
      "name": "node_status",
      "outputs": [
        {
          "name": "ans_fac",
          "type": "string"
        }
      ],
      "payable": false,
      "stateMutability": "view",
      "type": "function"
    },
    {
      "inputs": [],
      "payable": false,
      "stateMutability": "nonpayable",
      "type": "constructor"
    },
    {
      "anonymous": false,
      "inputs": [
        {
          "indexed": false,
          "name": "t",
          "type": "uint256"
        },
        {
          "indexed": false,
          "name": "f",
          "type": "string"
        },
        {
          "indexed": false,
          "name": "cursta",
          "type": "uint256"
        },
        {
          "indexed": false,
          "name": "facin",
          "type": "string"
        },
        {
          "indexed": false,
          "name": "correct",
          "type": "bool"
        },
        {
          "indexed": false,
          "name": "msg",
          "type": "string"
        }
      ],
      "name": "Info",
      "type": "event"
    },
    {
      "anonymous": false,
      "inputs": [
        {
          "indexed": false,
          "name": "int_cnt",
          "type": "uint256"
        },
        {
          "indexed": false,
          "name": "api_cnt",
          "type": "uint256"
        },
        {
          "indexed": false,
          "name": "s",
          "type": "bool"
        }
      ],
      "name": "File",
      "type": "event"
    },
    {
      "anonymous": false,
      "inputs": [
        {
          "indexed": false,
          "name": "sender",
          "type": "address"
        },
        {
          "indexed": false,
          "name": "function_name",
          "type": "string"
        },
        {
          "indexed": false,
          "name": "succeed_or_not",
          "type": "bool"
        },
        {
          "indexed": false,
          "name": "memo",
          "type": "string"
        }
      ],
      "name": "Log_file",
      "type": "event"
    },
    {
      "constant": false,
      "inputs": [],
      "name": "clear_all",
      "outputs": [],
      "payable": false,
      "stateMutability": "nonpayable",
      "type": "function"
    },
    {
      "constant": true,
      "inputs": [
        {
          "name": "ts",
          "type": "uint256"
        }
      ],
      "name": "get_nodestatus",
      "outputs": [
        {
          "name": "timestamp",
          "type": "uint256"
        },
        {
          "name": "ans_fac",
          "type": "string"
        },
        {
          "name": "updater",
          "type": "address"
        },
        {
          "name": "iscorrect",
          "type": "int256"
        }
      ],
      "payable": false,
      "stateMutability": "view",
      "type": "function"
    },
    {
      "constant": true,
      "inputs": [],
      "name": "check_all_update",
      "outputs": [
        {
          "name": "ans",
          "type": "bool"
        }
      ],
      "payable": false,
      "stateMutability": "view",
      "type": "function"
    },
    {
      "constant": false,
      "inputs": [],
      "name": "getFlag",
      "outputs": [],
      "payable": false,
      "stateMutability": "nonpayable",
      "type": "function"
    },
    {
      "constant": true,
      "inputs": [],
      "name": "getStat",
      "outputs": [
        {
          "name": "exe",
          "type": "address"
        },
        {
          "name": "curts_index",
          "type": "uint256"
        },
        {
          "name": "current_exe",
          "type": "address"
        },
        {
          "name": "status",
          "type": "int256"
        }
      ],
      "payable": false,
      "stateMutability": "view",
      "type": "function"
    },
    {
      "constant": false,
      "inputs": [
        {
          "name": "message",
          "type": "string"
        },
        {
          "name": "v",
          "type": "uint8"
        },
        {
          "name": "r",
          "type": "bytes32"
        },
        {
          "name": "s",
          "type": "bytes32"
        },
        {
          "name": "cnt",
          "type": "string"
        },
        {
          "name": "f_v",
          "type": "uint8"
        },
        {
          "name": "f_r",
          "type": "bytes32"
        },
        {
          "name": "f_s",
          "type": "bytes32"
        }
      ],
      "name": "setFAC",
      "outputs": [
        {
          "name": "",
          "type": "bool"
        }
      ],
      "payable": false,
      "stateMutability": "nonpayable",
      "type": "function"
    },
    {
      "constant": false,
      "inputs": [
        {
          "name": "message",
          "type": "string"
        },
        {
          "name": "v",
          "type": "uint8"
        },
        {
          "name": "r",
          "type": "bytes32"
        },
        {
          "name": "s",
          "type": "bytes32"
        },
        {
          "name": "cnt",
          "type": "string"
        },
        {
          "name": "f_v",
          "type": "uint8"
        },
        {
          "name": "f_r",
          "type": "bytes32"
        },
        {
          "name": "f_s",
          "type": "bytes32"
        }
      ],
      "name": "updateFAC",
      "outputs": [
        {
          "name": "",
          "type": "bool"
        }
      ],
      "payable": false,
      "stateMutability": "nonpayable",
      "type": "function"
    }
  ],
  "bytecode": "0x60806040527371d9fc92db3938d1dcd543e2ab03ff1a8d36efde6000806101000a81548173ffffffffffffffffffffffffffffffffffffffff021916908373ffffffffffffffffffffffffffffffffffffffff1602179055506060604051908101604052807303e1ba68651c7c953ab0874d5f488f273434790673ffffffffffffffffffffffffffffffffffffffff1673ffffffffffffffffffffffffffffffffffffffff16815260200173c4d181e0a3784e4f39e2f428ac164f01a1b8518373ffffffffffffffffffffffffffffffffffffffff1673ffffffffffffffffffffffffffffffffffffffff16815260200173e7b4ee0a3131a84832a297b41ee15fdc38e0ce9473ffffffffffffffffffffffffffffffffffffffff1673ffffffffffffffffffffffffffffffffffffffff168152506001906003620001469291906200047a565b5060606040519081016040528073ab0e7fb70df014cf5520287ee1497817243b01a973ffffffffffffffffffffffffffffffffffffffff1673ffffffffffffffffffffffffffffffffffffffff1681526020017330776dc632f936c99ee1becb977c1733c7924a6f73ffffffffffffffffffffffffffffffffffffffff1673ffffffffffffffffffffffffffffffffffffffff16815260200173ba092eb468bdb5a91147cd924211883f10be251b73ffffffffffffffffffffffffffffffffffffffff1673ffffffffffffffffffffffffffffffffffffffff168152506002906003620002359291906200047a565b506000600460006101000a81548173ffffffffffffffffffffffffffffffffffffffff021916908373ffffffffffffffffffffffffffffffffffffffff1602179055506000600560006101000a81548173ffffffffffffffffffffffffffffffffffffffff021916908373ffffffffffffffffffffffffffffffffffffffff1602179055506000600655348015620002cc57600080fd5b5060008090505b6001805490508110156200047357600281815481101515620002f157fe5b9060005260206000200160009054906101000a900473ffffffffffffffffffffffffffffffffffffffff16600360006001848154811015156200033057fe5b9060005260206000200160009054906101000a900473ffffffffffffffffffffffffffffffffffffffff1673ffffffffffffffffffffffffffffffffffffffff1673ffffffffffffffffffffffffffffffffffffffff16815260200190815260200160002060006101000a81548173ffffffffffffffffffffffffffffffffffffffff021916908373ffffffffffffffffffffffffffffffffffffffff160217905550600160086000600184815481101515620003e957fe5b9060005260206000200160009054906101000a900473ffffffffffffffffffffffffffffffffffffffff1673ffffffffffffffffffffffffffffffffffffffff1673ffffffffffffffffffffffffffffffffffffffff16815260200190815260200160002060006101000a81548160ff0219169083151502179055508080600101915050620002d3565b506200054f565b828054828255906000526020600020908101928215620004f6579160200282015b82811115620004f55782518260006101000a81548173ffffffffffffffffffffffffffffffffffffffff021916908373ffffffffffffffffffffffffffffffffffffffff160217905550916020019190600101906200049b565b5b50905062000505919062000509565b5090565b6200054c91905b808211156200054857600081816101000a81549073ffffffffffffffffffffffffffffffffffffffff02191690555060010162000510565b5090565b90565b61361b806200055f6000396000f3006080604052600436106100ba576000357c0100000000000000000000000000000000000000000000000000000000900463ffffffff168063093ef970146100bf57806314792aa6146101d85780632b71b0e51461023357806375684498146102cb5780637957f075146103b257806379d5f12c146103dd5780638d0a3e20146103f45780638fc1f9441461044b578063c3420ac214610564578063c8a8e193146105bb578063d0508a4f14610661578063f963393014610690575b600080fd5b3480156100cb57600080fd5b506101be600480360381019080803590602001908201803590602001908080601f0160208091040260200160405190810160405280939291908181526020018383808284378201915050505050509192919290803560ff16906020019092919080356000191690602001909291908035600019169060200190929190803590602001908201803590602001908080601f0160208091040260200160405190810160405280939291908181526020018383808284378201915050505050509192919290803560ff169060200190929190803560001916906020019092919080356000191690602001909291905050506106a7565b604051808215151515815260200191505060405180910390f35b3480156101e457600080fd5b50610219600480360381019080803573ffffffffffffffffffffffffffffffffffffffff169060200190929190505050611131565b604051808215151515815260200191505060405180910390f35b34801561023f57600080fd5b50610248611151565b604051808573ffffffffffffffffffffffffffffffffffffffff1673ffffffffffffffffffffffffffffffffffffffff1681526020018481526020018373ffffffffffffffffffffffffffffffffffffffff1673ffffffffffffffffffffffffffffffffffffffff16815260200182815260200194505050505060405180910390f35b3480156102d757600080fd5b506102f660048036038101908080359060200190929190505050611226565b60405180858152602001806020018473ffffffffffffffffffffffffffffffffffffffff1673ffffffffffffffffffffffffffffffffffffffff168152602001838152602001828103825285818151815260200191508051906020019080838360005b83811015610374578082015181840152602081019050610359565b50505050905090810190601f1680156103a15780820380516001836020036101000a031916815260200191505b509550505050505060405180910390f35b3480156103be57600080fd5b506103c7611344565b6040518082815260200191505060405180910390f35b3480156103e957600080fd5b506103f261134a565b005b34801561040057600080fd5b50610409611396565b604051808273ffffffffffffffffffffffffffffffffffffffff1673ffffffffffffffffffffffffffffffffffffffff16815260200191505060405180910390f35b34801561045757600080fd5b5061054a600480360381019080803590602001908201803590602001908080601f0160208091040260200160405190810160405280939291908181526020018383808284378201915050505050509192919290803560ff16906020019092919080356000191690602001909291908035600019169060200190929190803590602001908201803590602001908080601f0160208091040260200160405190810160405280939291908181526020018383808284378201915050505050509192919290803560ff169060200190929190803560001916906020019092919080356000191690602001909291905050506113bc565b604051808215151515815260200191505060405180910390f35b34801561057057600080fd5b5061057961219c565b604051808273ffffffffffffffffffffffffffffffffffffffff1673ffffffffffffffffffffffffffffffffffffffff16815260200191505060405180910390f35b3480156105c757600080fd5b506105e6600480360381019080803590602001909291905050506121c1565b6040518080602001828103825283818151815260200191508051906020019080838360005b8381101561062657808201518184015260208101905061060b565b50505050905090810190601f1680156106535780820380516001836020036101000a031916815260200191505b509250505060405180910390f35b34801561066d57600080fd5b50610676612277565b604051808215151515815260200191505060405180910390f35b34801561069c57600080fd5b506106a56123e9565b005b600080600060603373ffffffffffffffffffffffffffffffffffffffff16600460009054906101000a900473ffffffffffffffffffffffffffffffffffffffff1673ffffffffffffffffffffffffffffffffffffffff16141515610773576040517f08c379a00000000000000000000000000000000000000000000000000000000081526004018080602001828103825260188152602001807f4578656375746f72206e6f7420617574686f72697a65642e000000000000000081525060200191505060405180910390fd5b6107df600360003373ffffffffffffffffffffffffffffffffffffffff1673ffffffffffffffffffffffffffffffffffffffff16815260200190815260200160002060009054906101000a900473ffffffffffffffffffffffffffffffffffffffff1689898989612ab9565b1561103f5773__strings_______________________________631bd95155896040518263ffffffff167c01000000000000000000000000000000000000000000000000000000000281526004018080602001828103825283818151815260200191508051906020019080838360005b8381101561086a57808201518184015260208101905061084f565b50505050905090810190601f1680156108975780820380516001836020036101000a031916815260200191505b509250505060206040518083038186803b1580156108b457600080fd5b505af41580156108c8573d6000803e3d6000fd5b505050506040513d60208110156108de57600080fd5b810190808051906020019092919050505092506000809054906101000a900473ffffffffffffffffffffffffffffffffffffffff1673ffffffffffffffffffffffffffffffffffffffff1663cbdd296b6040518163ffffffff167c0100000000000000000000000000000000000000000000000000000000028152600401602060405180830381600087803b15801561097657600080fd5b505af115801561098a573d6000803e3d6000fd5b505050506040513d60208110156109a057600080fd5b8101908080519060200190929190505050831415610e4c57610a24600360003373ffffffffffffffffffffffffffffffffffffffff1673ffffffffffffffffffffffffffffffffffffffff16815260200190815260200160002060009054906101000a900473ffffffffffffffffffffffffffffffffffffffff168d8d8d8d612ab9565b15610d6457610a328c612eef565b809250819350505081600654111515610c3a5733600560006101000a81548173ffffffffffffffffffffffffffffffffffffffff021916908373ffffffffffffffffffffffffffffffffffffffff1602179055508160068190555080600760008481526020019081526020016000206000019080519060200190610ab7929190613530565b5060016007600084815260200190815260200160002060010160003373ffffffffffffffffffffffffffffffffffffffff1673ffffffffffffffffffffffffffffffffffffffff168152602001908152602001600020819055506000600460006101000a81548173ffffffffffffffffffffffffffffffffffffffff021916908373ffffffffffffffffffffffffffffffffffffffff1602179055507f3fe3b084d07c2b76d112e90e6fba3d24ac998b18dae309cb424eb1f7f820c442336001604051808373ffffffffffffffffffffffffffffffffffffffff1673ffffffffffffffffffffffffffffffffffffffff168152602001806020018315151515815260200180602001838103835260068152602001807f73657446414300000000000000000000000000000000000000000000000000008152506020018381038252600b8152602001807f5345545f5355434345454400000000000000000000000000000000000000000081525060200194505050505060405180910390a1610d5f565b6000600460006101000a81548173ffffffffffffffffffffffffffffffffffffffff021916908373ffffffffffffffffffffffffffffffffffffffff1602179055507f3fe3b084d07c2b76d112e90e6fba3d24ac998b18dae309cb424eb1f7f820c442336000604051808373ffffffffffffffffffffffffffffffffffffffff1673ffffffffffffffffffffffffffffffffffffffff168152602001806020018315151515815260200180602001838103835260068152602001807f7365744641430000000000000000000000000000000000000000000000000000815250602001838103825260108152602001807f54494d45434845434b5f4641494c45440000000000000000000000000000000081525060200194505050505060405180910390a15b610e47565b7f3fe3b084d07c2b76d112e90e6fba3d24ac998b18dae309cb424eb1f7f820c442336000604051808373ffffffffffffffffffffffffffffffffffffffff1673ffffffffffffffffffffffffffffffffffffffff168152602001806020018315151515815260200180602001838103835260068152602001807f73657446414300000000000000000000000000000000000000000000000000008152506020018381038252600a8152602001807f5349475f46414c4945440000000000000000000000000000000000000000000081525060200194505050505060405180910390a15b61103a565b7f3fe3b084d07c2b76d112e90e6fba3d24ac998b18dae309cb424eb1f7f820c442336000604051808373ffffffffffffffffffffffffffffffffffffffff1673ffffffffffffffffffffffffffffffffffffffff168152602001806020018315151515815260200180602001838103835260108152602001807f7365744641435f66696c656d61746368000000000000000000000000000000008152506020018381038252600d8152602001807f46434e545f4e4f544d415443480000000000000000000000000000000000000081525060200194505050505060405180910390a17f714815655d192e4f4fb7ec008230063053413218750650f64b6b320a955f9e8b836000809054906101000a900473ffffffffffffffffffffffffffffffffffffffff1673ffffffffffffffffffffffffffffffffffffffff1663cbdd296b6040518163ffffffff167c0100000000000000000000000000000000000000000000000000000000028152600401602060405180830381600087803b158015610fd557600080fd5b505af1158015610fe9573d6000803e3d6000fd5b505050506040513d6020811015610fff57600080fd5b810190808051906020019092919050505060006040518084815260200183815260200182151515158152602001935050505060405180910390a15b611122565b7f3fe3b084d07c2b76d112e90e6fba3d24ac998b18dae309cb424eb1f7f820c442336000604051808373ffffffffffffffffffffffffffffffffffffffff1673ffffffffffffffffffffffffffffffffffffffff1681526020018060200183151515158152602001806020018381038352600e8152602001807f7365744641435f66696c65636e740000000000000000000000000000000000008152506020018381038252600f8152602001807f66696c655f5349475f46414c494544000000000000000000000000000000000081525060200194505050505060405180910390a15b50505098975050505050505050565b60086020528060005260406000206000915054906101000a900460ff1681565b600080600080600460009054906101000a900473ffffffffffffffffffffffffffffffffffffffff16600654600560009054906101000a900473ffffffffffffffffffffffffffffffffffffffff166007600060065481526020019081526020016000206001016000600560009054906101000a900473ffffffffffffffffffffffffffffffffffffffff1673ffffffffffffffffffffffffffffffffffffffff1673ffffffffffffffffffffffffffffffffffffffff16815260200190815260200160002054935093509350935090919293565b600060606000808460076000878152602001908152602001600020600001336007600089815260200190815260200160002060010160003373ffffffffffffffffffffffffffffffffffffffff1673ffffffffffffffffffffffffffffffffffffffff16815260200190815260200160002054828054600181600116156101000203166002900480601f01602080910402602001604051908101604052809291908181526020018280546001816001161561010002031660029004801561132e5780601f106113035761010080835404028352916020019161132e565b820191906000526020600020905b81548152906001019060200180831161131157829003601f168201915b5050505050925093509350935093509193509193565b60065481565b6000600460006101000a81548173ffffffffffffffffffffffffffffffffffffffff021916908373ffffffffffffffffffffffffffffffffffffffff1602179055506000600681905550565b600560009054906101000a900473ffffffffffffffffffffffffffffffffffffffff1681565b6000806000606060011515600860003373ffffffffffffffffffffffffffffffffffffffff1673ffffffffffffffffffffffffffffffffffffffff16815260200190815260200160002060009054906101000a900460ff16151514156120aa57611424612277565b1515611fc257611496600360003373ffffffffffffffffffffffffffffffffffffffff1673ffffffffffffffffffffffffffffffffffffffff16815260200190815260200160002060009054906101000a900473ffffffffffffffffffffffffffffffffffffffff1689898989612ab9565b15611eda5773__strings_______________________________631bd95155896040518263ffffffff167c01000000000000000000000000000000000000000000000000000000000281526004018080602001828103825283818151815260200191508051906020019080838360005b83811015611521578082015181840152602081019050611506565b50505050905090810190601f16801561154e5780820380516001836020036101000a031916815260200191505b509250505060206040518083038186803b15801561156b57600080fd5b505af415801561157f573d6000803e3d6000fd5b505050506040513d602081101561159557600080fd5b810190808051906020019092919050505092506000809054906101000a900473ffffffffffffffffffffffffffffffffffffffff1673ffffffffffffffffffffffffffffffffffffffff1663cbdd296b6040518163ffffffff167c0100000000000000000000000000000000000000000000000000000000028152600401602060405180830381600087803b15801561162d57600080fd5b505af1158015611641573d6000803e3d6000fd5b505050506040513d602081101561165757600080fd5b8101908080519060200190929190505050831415611df2576116db600360003373ffffffffffffffffffffffffffffffffffffffff1673ffffffffffffffffffffffffffffffffffffffff16815260200190815260200160002060009054906101000a900473ffffffffffffffffffffffffffffffffffffffff168d8d8d8d612ab9565b15611d0a576116e98c612eef565b809250819350505060065482101580156117585750600060076000600654815260200190815260200160002060010160003373ffffffffffffffffffffffffffffffffffffffff1673ffffffffffffffffffffffffffffffffffffffff16815260200190815260200160002054145b15611c2257806040516020018082805190602001908083835b6020831015156117965780518252602082019150602081019050602083039250611771565b6001836020036101000a0380198251168184511680821785525050505050509050019150506040516020818303038152906040526040518082805190602001908083835b6020831015156117ff57805182526020820191506020810190506020830392506117da565b6001836020036101000a03801982511681845116808217855250505050505090500191505060405180910390206000191660076000600654815260200190815260200160002060000160405160200180828054600181600116156101000203166002900480156118a65780601f106118845761010080835404028352918201916118a6565b820191906000526020600020905b815481529060010190602001808311611892575b50509150506040516020818303038152906040526040518082805190602001908083835b6020831015156118ef57805182526020820191506020810190506020830392506118ca565b6001836020036101000a0380198251168184511680821785525050505050509050019150506040518091039020600019161415611a6857600160076000600654815260200190815260200160002060010160003373ffffffffffffffffffffffffffffffffffffffff1673ffffffffffffffffffffffffffffffffffffffff168152602001908152602001600020819055507f3fe3b084d07c2b76d112e90e6fba3d24ac998b18dae309cb424eb1f7f820c442336001604051808373ffffffffffffffffffffffffffffffffffffffff1673ffffffffffffffffffffffffffffffffffffffff1681526020018060200183151515158152602001806020018381038352600c8152602001807f72656e65775f73746174757300000000000000000000000000000000000000008152506020018381038252600b8152602001807f5345545f5355434345454400000000000000000000000000000000000000000081525060200194505050505060405180910390a1611c1d565b7fffffffffffffffffffffffffffffffffffffffffffffffffffffffffffffffff60076000600654815260200190815260200160002060010160003373ffffffffffffffffffffffffffffffffffffffff1673ffffffffffffffffffffffffffffffffffffffff168152602001908152602001600020819055506000600860003373ffffffffffffffffffffffffffffffffffffffff1673ffffffffffffffffffffffffffffffffffffffff16815260200190815260200160002060006101000a81548160ff0219169083151502179055507f3fe3b084d07c2b76d112e90e6fba3d24ac998b18dae309cb424eb1f7f820c442336000604051808373ffffffffffffffffffffffffffffffffffffffff1673ffffffffffffffffffffffffffffffffffffffff1681526020018060200183151515158152602001806020018381038352600c8152602001807f72656e65775f7374617475730000000000000000000000000000000000000000815250602001838103825260148152602001807f504153535f5349472d53594e435f4641494c454400000000000000000000000081525060200194505050505060405180910390a15b611d05565b7f3fe3b084d07c2b76d112e90e6fba3d24ac998b18dae309cb424eb1f7f820c442336000604051808373ffffffffffffffffffffffffffffffffffffffff1673ffffffffffffffffffffffffffffffffffffffff1681526020018060200183151515158152602001806020018381038352600c8152602001807f72656e65775f73746174757300000000000000000000000000000000000000008152506020018381038252601b8152602001807f54494d455f4d49534d415443482d4f522d4c4f475f455853495354000000000081525060200194505050505060405180910390a15b611ded565b7f3fe3b084d07c2b76d112e90e6fba3d24ac998b18dae309cb424eb1f7f820c442336000604051808373ffffffffffffffffffffffffffffffffffffffff1673ffffffffffffffffffffffffffffffffffffffff1681526020018060200183151515158152602001806020018381038352600c8152602001807f72656e65775f73746174757300000000000000000000000000000000000000008152506020018381038252600a8152602001807f5349475f46414c4945440000000000000000000000000000000000000000000081525060200194505050505060405180910390a15b611ed5565b7f3fe3b084d07c2b76d112e90e6fba3d24ac998b18dae309cb424eb1f7f820c442336000604051808373ffffffffffffffffffffffffffffffffffffffff1673ffffffffffffffffffffffffffffffffffffffff168152602001806020018315151515815260200180602001838103835260168152602001807f72656e65775f7374617475735f66696c656d61746368000000000000000000008152506020018381038252600d8152602001807f46434e545f4e4f544d415443480000000000000000000000000000000000000081525060200194505050505060405180910390a15b611fbd565b7f3fe3b084d07c2b76d112e90e6fba3d24ac998b18dae309cb424eb1f7f820c442336000604051808373ffffffffffffffffffffffffffffffffffffffff1673ffffffffffffffffffffffffffffffffffffffff168152602001806020018315151515815260200180602001838103835260168152602001807f72656e65775f7374617475735f66696c656d61746368000000000000000000008152506020018381038252600f8152602001807f46434e545f5349475f46414c494544000000000000000000000000000000000081525060200194505050505060405180910390a15b6120a5565b7f3fe3b084d07c2b76d112e90e6fba3d24ac998b18dae309cb424eb1f7f820c442336000604051808373ffffffffffffffffffffffffffffffffffffffff1673ffffffffffffffffffffffffffffffffffffffff1681526020018060200183151515158152602001806020018381038352600c8152602001807f72656e65775f73746174757300000000000000000000000000000000000000008152506020018381038252600b8152602001807f414c4c5f5550444154454400000000000000000000000000000000000000000081525060200194505050505060405180910390a15b61218d565b7f3fe3b084d07c2b76d112e90e6fba3d24ac998b18dae309cb424eb1f7f820c442336000604051808373ffffffffffffffffffffffffffffffffffffffff1673ffffffffffffffffffffffffffffffffffffffff1681526020018060200183151515158152602001806020018381038352600c8152602001807f72656e65775f73746174757300000000000000000000000000000000000000008152506020018381038252600e8152602001807f494e56414c49445f53454e44455200000000000000000000000000000000000081525060200194505050505060405180910390a15b50505098975050505050505050565b6000809054906101000a900473ffffffffffffffffffffffffffffffffffffffff1681565b6007602052806000526040600020600091509050806000018054600181600116156101000203166002900480601f01602080910402602001604051908101604052809291908181526020018280546001816001161561010002031660029004801561226d5780601f106122425761010080835404028352916020019161226d565b820191906000526020600020905b81548152906001019060200180831161225057829003601f168201915b5050505050905081565b6000806000600654141561228e57600191506123e5565b600090505b6001805490508110156123e05760011515600860006001848154811015156122b757fe5b9060005260206000200160009054906101000a900473ffffffffffffffffffffffffffffffffffffffff1673ffffffffffffffffffffffffffffffffffffffff1673ffffffffffffffffffffffffffffffffffffffff16815260200190815260200160002060009054906101000a900460ff16151514156123d3576000600760006006548152602001908152602001600020600101600060018481548110151561235d57fe5b9060005260206000200160009054906101000a900473ffffffffffffffffffffffffffffffffffffffff1673ffffffffffffffffffffffffffffffffffffffff1673ffffffffffffffffffffffffffffffffffffffff1681526020019081526020016000205414156123d257600091506123e5565b5b8080600101915050612293565b600191505b5090565b60011515600860003373ffffffffffffffffffffffffffffffffffffffff1673ffffffffffffffffffffffffffffffffffffffff16815260200190815260200160002060009054906101000a900460ff16151514156129d45761244a612277565b156128ec576000604051808273ffffffffffffffffffffffffffffffffffffffff1673ffffffffffffffffffffffffffffffffffffffff166c01000000000000000000000000028152601401915050604051809103902060001916600460009054906101000a900473ffffffffffffffffffffffffffffffffffffffff16604051808273ffffffffffffffffffffffffffffffffffffffff1673ffffffffffffffffffffffffffffffffffffffff166c01000000000000000000000000028152601401915050604051809103902060001916141561264a5733600460006101000a81548173ffffffffffffffffffffffffffffffffffffffff021916908373ffffffffffffffffffffffffffffffffffffffff1602179055507f3fe3b084d07c2b76d112e90e6fba3d24ac998b18dae309cb424eb1f7f820c442336001604051808373ffffffffffffffffffffffffffffffffffffffff1673ffffffffffffffffffffffffffffffffffffffff168152602001806020018315151515815260200180602001838103835260078152602001807f676574466c616700000000000000000000000000000000000000000000000000815250602001838103825260078152602001807f4e45575f5345540000000000000000000000000000000000000000000000000081525060200194505050505060405180910390a16128e7565b33604051808273ffffffffffffffffffffffffffffffffffffffff1673ffffffffffffffffffffffffffffffffffffffff166c01000000000000000000000000028152601401915050604051809103902060001916600460009054906101000a900473ffffffffffffffffffffffffffffffffffffffff16604051808273ffffffffffffffffffffffffffffffffffffffff1673ffffffffffffffffffffffffffffffffffffffff166c010000000000000000000000000281526014019150506040518091039020600019161415612803577f3fe3b084d07c2b76d112e90e6fba3d24ac998b18dae309cb424eb1f7f820c442336001604051808373ffffffffffffffffffffffffffffffffffffffff1673ffffffffffffffffffffffffffffffffffffffff168152602001806020018315151515815260200180602001838103835260078152602001807f676574466c6167000000000000000000000000000000000000000000000000008152506020018381038252600b8152602001807f5345545f414c524541445900000000000000000000000000000000000000000081525060200194505050505060405180910390a16128e6565b7f3fe3b084d07c2b76d112e90e6fba3d24ac998b18dae309cb424eb1f7f820c442336000604051808373ffffffffffffffffffffffffffffffffffffffff1673ffffffffffffffffffffffffffffffffffffffff168152602001806020018315151515815260200180602001838103835260078152602001807f676574466c616700000000000000000000000000000000000000000000000000815250602001838103825260088152602001807f4f4343555049454400000000000000000000000000000000000000000000000081525060200194505050505060405180910390a15b5b6129cf565b7f3fe3b084d07c2b76d112e90e6fba3d24ac998b18dae309cb424eb1f7f820c442336000604051808373ffffffffffffffffffffffffffffffffffffffff1673ffffffffffffffffffffffffffffffffffffffff168152602001806020018315151515815260200180602001838103835260078152602001807f676574466c6167000000000000000000000000000000000000000000000000008152506020018381038252600f8152602001807f5550525f484156454e545f53594e43000000000000000000000000000000000081525060200194505050505060405180910390a15b612ab7565b7f3fe3b084d07c2b76d112e90e6fba3d24ac998b18dae309cb424eb1f7f820c442336000604051808373ffffffffffffffffffffffffffffffffffffffff1673ffffffffffffffffffffffffffffffffffffffff168152602001806020018315151515815260200180602001838103835260078152602001807f676574466c6167000000000000000000000000000000000000000000000000008152506020018381038252600e8152602001807f494e56414c49445f53454e44455200000000000000000000000000000000000081525060200194505050505060405180910390a15b565b600060606000806000806000806040805190810160405280602081526020017f19457468657265756d205369676e6564204d6573736167653a0a30303030303081525096508b519450603987019550620f423f8511151515612b1a57600080fd5b60009350620186a092505b600083141515612b98578285811515612b3a57fe5b0491506000821415612b64576000841415612b6357600a83811515612b5b57fe5b049250612b25565b5b838060010194505082820285039450600a83811515612b7f57fe5b0492506030820191508580600101965050818653612b25565b6000841415612baa57601b9350612bb1565b601a840193505b838752868c6040516020018083805190602001908083835b602083101515612bee5780518252602082019150602081019050602083039250612bc9565b6001836020036101000a03801982511681845116808217855250505050505090500182805190602001908083835b602083101515612c415780518252602082019150602081019050602083039250612c1c565b6001836020036101000a038019825116818451168082178552505050505050905001925050506040516020818303038152906040526040518082805190602001908083835b602083101515612cab5780518252602082019150602081019050602083039250612c86565b6001836020036101000a038019825116818451168082178552505050505050905001915050604051809103902090506001818c8c8c604051600081526020016040526040518085600019166000191681526020018460ff1660ff1681526020018360001916600019168152602001826000191660001916815260200194505050505060206040516020810390808403906000865af1158015612d51573d6000803e3d6000fd5b50505060206040510351604051602001808273ffffffffffffffffffffffffffffffffffffffff1673ffffffffffffffffffffffffffffffffffffffff166c010000000000000000000000000281526014019150506040516020818303038152906040526040518082805190602001908083835b602083101515612dea5780518252602082019150602081019050602083039250612dc5565b6001836020036101000a0380198251168184511680821785525050505050509050019150506040518091039020600019168d604051602001808273ffffffffffffffffffffffffffffffffffffffff1673ffffffffffffffffffffffffffffffffffffffff166c010000000000000000000000000281526014019150506040516020818303038152906040526040518082805190602001908083835b602083101515612eab5780518252602082019150602081019050602083039250612e86565b6001836020036101000a0380198251168184511680821785525050505050509050019150506040518091039020600019161497505050505050505095945050505050565b60006060612efb6135b0565b612f036135b0565b60606000612f1087613036565b9350612f506040805190810160405280600181526020017f3a00000000000000000000000000000000000000000000000000000000000000815250613036565b9250612f65838561306490919063ffffffff16565b604051908082528060200260200182016040528015612f9857816020015b6060815260200190600190039081612f835790505b509150600090505b8151811015612fec57612fc4612fbf84866130db90919063ffffffff16565b6130f5565b8282815181101515612fd257fe5b906020019060200201819052508080600101915050612fa0565b61300d826000815181101515612ffe57fe5b90602001906020020151613157565b82600181518110151561301c57fe5b906020019060200201518090509550955050505050915091565b61303e6135b0565b600060208301905060408051908101604052808451815260200182815250915050919050565b60008082600001516130888560000151866020015186600001518760200151613361565b0190505b8360000151846020015101811115156130d457818060010192505082600001516130cc856020015183038660000151038386600001518760200151613361565b01905061308c565b5092915050565b6130e36135b0565b6130ee838383613447565b5092915050565b606080600083600001516040519080825280601f01601f1916602001820160405280156131315781602001602082028038833980820191505090505b50915060208201905061314d81856020015186600001516134e5565b8192505050919050565b6000606060008084925060009150600090505b82518110156133565760307f01000000000000000000000000000000000000000000000000000000000000000283828151811015156131a557fe5b9060200101517f010000000000000000000000000000000000000000000000000000000000000090047f0100000000000000000000000000000000000000000000000000000000000000027effffffffffffffffffffffffffffffffffffffffffffffffffffffffffffff1916101580156132bd575060397f010000000000000000000000000000000000000000000000000000000000000002838281518110151561324d57fe5b9060200101517f010000000000000000000000000000000000000000000000000000000000000090047f0100000000000000000000000000000000000000000000000000000000000000027effffffffffffffffffffffffffffffffffffffffffffffffffffffffffffff191611155b1561334957603083828151811015156132d257fe5b9060200101517f010000000000000000000000000000000000000000000000000000000000000090047f0100000000000000000000000000000000000000000000000000000000000000027f0100000000000000000000000000000000000000000000000000000000000000900403600a83020191505b808060010191505061316a565b819350505050919050565b60008060008060008060008060008b97508c8b1115156134315760208b1115156133eb5760018b60200360080260020a03196001029550858a511694508a8d8d010393508588511692505b846000191683600019161415156133e35783881015156133d0578c8c019850613437565b87806001019850508588511692506133ac565b879850613437565b8a8a209150600096505b8a8d0387111515613430578a8820905080600019168260001916141561341d57879850613437565b60018801975086806001019750506133f5565b5b8c8c0198505b5050505050505050949350505050565b61344f6135b0565b600061346d8560000151866020015186600001518760200151613361565b905084602001518360200181815250508460200151810383600001818152505084600001518560200151018114156134af5760008560000181815250506134da565b8360000151836000015101856000018181510391508181525050836000015181018560200181815250505b829150509392505050565b60005b60208210151561350d57825184526020840193506020830192506020820391506134e8565b6001826020036101000a0390508019835116818551168181178652505050505050565b828054600181600116156101000203166002900490600052602060002090601f016020900481019282601f1061357157805160ff191683800117855561359f565b8280016001018555821561359f579182015b8281111561359e578251825591602001919060010190613583565b5b5090506135ac91906135ca565b5090565b604080519081016040528060008152602001600081525090565b6135ec91905b808211156135e85760008160009055506001016135d0565b5090565b905600a165627a7a72305820e4ce4bfb9c9213a4da1d49d35838dac05a3993a8dbc750e505b507bf3e4628ce0029",
  "source": "pragma solidity >=0.4.17 <0.6.0;\nimport './sig_verification.sol';\nimport './monTool.sol';\nimport './IPFSlog.sol';\n\n\ncontract FACSync {\n    IPFSlog public ipfslog = IPFSlog(0x71d9fc92db3938d1dcd543e2ab03ff1a8d36efde);\n    //15sec\n    //address[] internal bc_account = [address(0xb51FA99C248D426ff86fd60aE71834F662311913), address(0x204ae41b745CeE8301fcaEC7Add626718735CCd2), address(0xBC6596a9A1584e21d94DC65F606078dE8857db20)];\n    //5sec\n    address[] internal bc_account = [address(0x03e1Ba68651c7C953ab0874D5f488F2734347906), address(0xC4d181E0A3784E4F39E2F428aC164f01a1b85183), address(0xe7b4EE0A3131A84832a297B41Ee15FdC38E0ce94)];\n    address[] internal valsign_addr = [address(0xaB0e7Fb70Df014cF5520287EE1497817243B01A9), address(0x30776DC632f936C99eE1becB977C1733c7924a6F), address(0xbA092eb468BdB5a91147Cd924211883f10Be251B)];\n    mapping(address => address) map_addr;\n    address internal executor = address(0x0);\n    address public cur_exe = address(0x0);\n    uint public cur_ts =0;\n    \n    struct NodeStatus{\n        string ans_fac;\n        mapping(address => int) matches;\n    }\n    mapping(uint=>NodeStatus) public node_status;\n    mapping(address => bool) public val_address;\n    event Info (uint t, string f,uint cursta,string facin,bool correct, string msg);\n    event File( uint int_cnt, uint api_cnt,bool s);\n    event Log_file (address sender, string function_name, bool succeed_or_not, string memo);\n     \n    function clear_all(){\n        executor = address(0x0);\n        cur_ts=0;\n        \n    }\n    function get_nodestatus(uint ts)view returns (uint timestamp, string ans_fac, address updater, int iscorrect){\n        return(ts,node_status[ts].ans_fac,msg.sender, node_status[ts].matches[msg.sender]);\n                         \n    }\n    modifier valExecutor() {\n        require(executor == msg.sender, \"Executor not authorized.\");\n        _;\n    }\n    constructor() public {\n        for (uint i=0; i<bc_account.length; i++){\n            map_addr[bc_account[i]]=valsign_addr[i];\n            val_address[bc_account[i]] = true;\n        }\n    }\n    \n    function check_all_update()view returns(bool ans){\n        if (cur_ts==0){\n            return true;\n        }\n        else{\n            for (uint i=0;i<bc_account.length;i++){\n                if(val_address[bc_account[i]]==true){\n                    if (node_status[cur_ts].matches[bc_account[i]] == 0)\n                       return false;         \n                }\n                    \n            }\n          return true;  \n        }\n    }\n    \n    function getFlag() public{\n        if (val_address[msg.sender]==true){ //get setFAC permission (executor)\n            if(check_all_update()){\n               if (keccak256(executor) == keccak256(address(0x0))){\n                        executor = msg.sender;\n                        emit Log_file(msg.sender, \"getFlag\", true, \"NEW_SET\");\n                    }else{\n                        if(keccak256(executor) == keccak256(msg.sender))\n                            emit Log_file(msg.sender, \"getFlag\", true, \"SET_ALREADY\");\n                        else \n                            emit Log_file(msg.sender, \"getFlag\", false, \"OCCUPIED\");\n                    } \n            }\n            else\n                emit Log_file(msg.sender, \"getFlag\", false, \"UPR_HAVENT_SYNC\");\n            \n        }\n        else\n            emit Log_file(msg.sender, \"getFlag\", false, \"INVALID_SENDER\");\n    }\n    \n    function getStat() public view returns (address exe, uint curts_index, address current_exe, int status){\n        return (executor, cur_ts, cur_exe, node_status[cur_ts].matches[cur_exe]);\n    }\n    \n    function setFAC(string memory message, uint8 v, bytes32 r, bytes32 s, string memory cnt, uint8 f_v, bytes32 f_r, bytes32 f_s ) public valExecutor  returns (bool){\n        if (sig_verification.verifymsg(map_addr[msg.sender],cnt, f_v, f_r, f_s)){\n            uint int_cnt = strings.stringToUint(cnt);\n            if (int_cnt == ipfslog.get_api_cnt()){\n                if(sig_verification.verifymsg(map_addr[msg.sender],message,v, r, s)){\n                    uint timestamp;\n                    string memory fac;\n                    (timestamp, fac) = monTool.spilt_parts(message);\n                    if (cur_ts <= timestamp){\n                        cur_exe = msg.sender; //unused\n                        cur_ts = timestamp;\n                        node_status[timestamp].ans_fac = fac;\n                        node_status[timestamp].matches[msg.sender] = 1;\n                        executor = address(0x0); \n                        \n                        emit Log_file(msg.sender, \"setFAC\", true, \"SET_SUCCEED\");\n                    }else{   \n                        executor = address(0x0); \n                        emit Log_file(msg.sender, \"setFAC\", false, \"TIMECHECK_FAILED\");\n                    }\n                }\n                else\n                    emit Log_file(msg.sender, \"setFAC\", false,\"SIG_FALIED\");\n            }\n            else{\n                emit Log_file(msg.sender, \"setFAC_filematch\", false,\"FCNT_NOTMATCH\");\n                emit File(int_cnt,ipfslog.get_api_cnt(),false);\n            }\n        }\n        else\n            emit Log_file(msg.sender, \"setFAC_filecnt\", false,\"file_SIG_FALIED\");\n    }\n    \n    \n    function updateFAC(string memory message, uint8 v, bytes32 r, bytes32 s, string memory cnt, uint8 f_v, bytes32 f_r, bytes32 f_s ) public returns (bool){\n       if(val_address[msg.sender]==true){\n            if (!check_all_update()){\n                if (sig_verification.verifymsg(map_addr[msg.sender],cnt, f_v, f_r, f_s)){\n                     uint int_cnt = strings.stringToUint(cnt);\n                     if (int_cnt == ipfslog.get_api_cnt()){\n                         if(sig_verification.verifymsg(map_addr[msg.sender],message,v, r, s)){\n                            uint timestamp;\n                            string memory fac;\n                            (timestamp, fac) = monTool.spilt_parts(message);\n                            if (timestamp>=cur_ts && node_status[cur_ts].matches[msg.sender]==0){\n                                if (keccak256(abi.encodePacked((node_status[cur_ts].ans_fac))) == keccak256(abi.encodePacked((fac)))){\n                                    node_status[cur_ts].matches[msg.sender] = 1; \n                                    emit Log_file(msg.sender, \"renew_status\", true, \"SET_SUCCEED\");\n                                    \n                                }\n                                else{\n                                    node_status[cur_ts].matches[msg.sender] = -1;\n                                    val_address[msg.sender] =false; \n                                    emit Log_file(msg.sender, \"renew_status\", false, \"PASS_SIG-SYNC_FAILED\");\n                                }\n                            }\n                            else\n                                emit Log_file(msg.sender, \"renew_status\", false, \"TIME_MISMATCH-OR-LOG_EXSIST\");\n                        }\n                        else\n                            emit Log_file(msg.sender, \"renew_status\", false, \"SIG_FALIED\");\n                     }\n                     else \n                        emit Log_file(msg.sender, \"renew_status_filematch\", false,\"FCNT_NOTMATCH\");\n                }\n                else\n                    emit Log_file(msg.sender, \"renew_status_filematch\", false,\"FCNT_SIG_FALIED\");\n            }\n            else\n                emit Log_file(msg.sender, \"renew_status\", false, \"ALL_UPDATED\");\n       }\n       else\n          emit Log_file(msg.sender, \"renew_status\", false, \"INVALID_SENDER\");    \n    }\n    \n    \n}",
  "sourcePath": "/home/breakfast/Mon-IPFS/deployCont/truffle/contracts/FACSync.sol",
  "compiler": {
    "name": "solc",
    "version": "0.4.22+commit.4cb486ee.Emscripten.clang"
  },
  "schemaVersion": "3.0.16",
  "updatedAt": "2020-03-12T08:02:21.424Z",
  "devdoc": {
    "methods": {}
  },
  "userdoc": {
    "methods": {}
  }
}