{
  "contractName": "IPFSlog",
  "abi": [
    {
      "anonymous": false,
      "inputs": [
        {
          "indexed": false,
          "name": "sender",
          "type": "address"
        },
        {
          "indexed": false,
          "name": "index",
          "type": "uint256"
        },
        {
          "indexed": false,
          "name": "cmd",
          "type": "string"
        },
        {
          "indexed": false,
          "name": "filename",
          "type": "string"
        }
      ],
      "name": "Cmdlog",
      "type": "event"
    },
    {
      "anonymous": false,
      "inputs": [
        {
          "indexed": false,
          "name": "sender",
          "type": "address"
        },
        {
          "indexed": false,
          "name": "api_amt",
          "type": "uint256"
        },
        {
          "indexed": false,
          "name": "succeed_or_not",
          "type": "bool"
        }
      ],
      "name": "API_fileAmt",
      "type": "event"
    },
    {
      "constant": false,
      "inputs": [
        {
          "name": "input",
          "type": "uint256"
        }
      ],
      "name": "set_api_cnt",
      "outputs": [],
      "payable": false,
      "stateMutability": "nonpayable",
      "type": "function"
    },
    {
      "constant": true,
      "inputs": [],
      "name": "get_api_cnt",
      "outputs": [
        {
          "name": "apicnt",
          "type": "uint256"
        }
      ],
      "payable": false,
      "stateMutability": "view",
      "type": "function"
    },
    {
      "constant": false,
      "inputs": [
        {
          "name": "sender",
          "type": "address"
        },
        {
          "name": "api_amt",
          "type": "uint256"
        },
        {
          "name": "file_amt",
          "type": "uint256"
        },
        {
          "name": "cmd",
          "type": "string"
        },
        {
          "name": "filename",
          "type": "string"
        }
      ],
      "name": "keeplog",
      "outputs": [],
      "payable": false,
      "stateMutability": "nonpayable",
      "type": "function"
    }
  ],
  "bytecode": "0x608060405260008055600060015534801561001957600080fd5b50610bd8806100296000396000f300608060405260043610610057576000357c0100000000000000000000000000000000000000000000000000000000900463ffffffff168063a0cd09941461005c578063cbdd296b1461013f578063dee92b671461016a575b600080fd5b34801561006857600080fd5b5061013d600480360381019080803573ffffffffffffffffffffffffffffffffffffffff1690602001909291908035906020019092919080359060200190929190803590602001908201803590602001908080601f0160208091040260200160405190810160405280939291908181526020018383808284378201915050505050509192919290803590602001908201803590602001908080601f0160208091040260200160405190810160405280939291908181526020018383808284378201915050505050509192919290505050610197565b005b34801561014b57600080fd5b5061015461063b565b6040518082815260200191505060405180910390f35b34801561017657600080fd5b5061019560048036038101908080359060200190929190505050610645565b005b6060806000849250839150600090505b6000861415156105b357600190506001860395506101c5838361064f565b60026000805481526020019081526020016000206000016000600260008054815260200190815260200160002060010160006002600080548152602001908152602001600020600201600060026000805481526020019081526020016000206003016000889190509080519060200190610240929190610aed565b50879190509080519060200190610258929190610aed565b50869190509080519060200190610270929190610aed565b50859190509080519060200190610288929190610aed565b505050505060026000805481526020019081526020016000206001018054600181600116156101000203166002900480601f0160208091040260200160405190810160405280929190818152602001828054600181600116156101000203166002900480156103385780601f1061030d57610100808354040283529160200191610338565b820191906000526020600020905b81548152906001019060200180831161031b57829003601f168201915b5050505050925060026000805481526020019081526020016000206003018054600181600116156101000203166002900480601f0160208091040260200160405190810160405280929190818152602001828054600181600116156101000203166002900480156103ea5780601f106103bf576101008083540402835291602001916103ea565b820191906000526020600020905b8154815290600101906020018083116103cd57829003601f168201915b505050505091507f8365dd065c3a44955e9c4126fb02d0a12c9630a86c633672cbe7583895a0ad2e8860005460026000805481526020019081526020016000206000016002600080548152602001908152602001600020600201604051808573ffffffffffffffffffffffffffffffffffffffff1673ffffffffffffffffffffffffffffffffffffffff16815260200184815260200180602001806020018381038352858181546001816001161561010002031660029004815260200191508054600181600116156101000203166002900480156105095780601f106104de57610100808354040283529160200191610509565b820191906000526020600020905b8154815290600101906020018083116104ec57829003601f168201915b505083810382528481815460018160011615610100020316600290048152602001915080546001816001161561010002031660029004801561058c5780601f106105615761010080835404028352916020019161058c565b820191906000526020600020905b81548152906001019060200180831161056f57829003601f168201915b5050965050505050505060405180910390a1600160008082825401925050819055506101a7565b866001819055507f140c9ce8d23d789f438cd57fa7c984a0b54736c66a8955906d6ca61f25ee176b888883604051808473ffffffffffffffffffffffffffffffffffffffff1673ffffffffffffffffffffffffffffffffffffffff16815260200183815260200182151515158152602001935050505060405180910390a15050505050505050565b6000600154905090565b8060018190555050565b60608060608061065d610b6d565b610665610b6d565b61066d610b6d565b6060806106798b610874565b94506106848a610874565b93506106c46040805190810160405280600181526020017f3a00000000000000000000000000000000000000000000000000000000000000815250610874565b925060026040519080825280602002602001820160405280156106fb57816020015b60608152602001906001900390816106e65790505b509150600260405190808252806020026020018201604052801561073357816020015b606081526020019060019003908161071e5790505b50905061075161074c84876108a290919063ffffffff16565b6108bc565b82600081518110151561076057fe5b90602001906020020181905250610776856108bc565b82600181518110151561078557fe5b906020019060200201819052506107ad6107a884866108a290919063ffffffff16565b6108bc565b8160008151811015156107bc57fe5b906020019060200201819052506107d2846108bc565b8160018151811015156107e157fe5b906020019060200201819052508160008151811015156107fd57fe5b9060200190602002015182600181518110151561081657fe5b9060200190602002015182600081518110151561082f57fe5b9060200190602002015183600181518110151561084857fe5b906020019060200201518393508292508191508090509850985098509850505050505092959194509250565b61087c610b6d565b600060208301905060408051908101604052808451815260200182815250915050919050565b6108aa610b6d565b6108b583838361091e565b5092915050565b606080600083600001516040519080825280601f01601f1916602001820160405280156108f85781602001602082028038833980820191505090505b50915060208201905061091481856020015186600001516109bc565b8192505050919050565b610926610b6d565b60006109448560000151866020015186600001518760200151610a07565b905084602001518360200181815250508460200151810383600001818152505084600001518560200151018114156109865760008560000181815250506109b1565b8360000151836000015101856000018181510391508181525050836000015181018560200181815250505b829150509392505050565b60005b6020821015156109e457825184526020840193506020830192506020820391506109bf565b6001826020036101000a0390508019835116818551168181178652505050505050565b60008060008060008060008060008b97508c8b111515610ad75760208b111515610a915760018b60200360080260020a03196001029550858a511694508a8d8d010393508588511692505b84600019168360001916141515610a89578388101515610a76578c8c019850610add565b8780600101985050858851169250610a52565b879850610add565b8a8a209150600096505b8a8d0387111515610ad6578a88209050806000191682600019161415610ac357879850610add565b6001880197508680600101975050610a9b565b5b8c8c0198505b5050505050505050949350505050565b828054600181600116156101000203166002900490600052602060002090601f016020900481019282601f10610b2e57805160ff1916838001178555610b5c565b82800160010185558215610b5c579182015b82811115610b5b578251825591602001919060010190610b40565b5b509050610b699190610b87565b5090565b604080519081016040528060008152602001600081525090565b610ba991905b80821115610ba5576000816000905550600101610b8d565b5090565b905600a165627a7a72305820a4e7a8848f159bda6c692267496c5574f5db7eb493e10e5f7816ff957c56ae6b0029",
  "source": "pragma solidity >=0.4.17 <0.6.0;\nimport './strings.sol';\n\ncontract IPFSlog{\n    using strings for *;\n    uint internal cur_index = 0;\n    event Cmdlog(address sender, uint index, string cmd, string filename);\n    event API_fileAmt(address sender, uint api_amt, bool succeed_or_not);\n    struct  Input_str{\n        string cur_cmd;\n        string left_cmd;\n        string cur_filename;\n        string left_filename;\n    }\n    uint api_cnt=0;\n    mapping(uint=>Input_str) log_cmd;\n    \n    \n     function set_api_cnt(uint input)external{\n        api_cnt=input;\n    }\n    \n    function get_api_cnt()external view returns (uint apicnt){\n        return api_cnt;\n    }\n    function keeplog (address sender, uint api_amt, uint file_amt, string memory cmd, string memory filename) public {\n        string memory tmp_cmd = cmd;\n        string memory tmp_filename = filename;\n        bool tmp = false;\n        while(file_amt!=0){\n             tmp = true;\n            file_amt-=1;\n            (log_cmd[cur_index].cur_cmd, log_cmd[cur_index].left_cmd, log_cmd[cur_index].cur_filename, log_cmd[cur_index].left_filename) = spilt_parts(tmp_cmd,tmp_filename);\n            tmp_cmd = log_cmd[cur_index].left_cmd;\n            tmp_filename = log_cmd[cur_index].left_filename;\n            emit Cmdlog(sender, cur_index, log_cmd[cur_index].cur_cmd, log_cmd[cur_index].cur_filename);\n            cur_index+=1;\n        }\n        api_cnt = api_amt;\n        emit API_fileAmt(sender, api_amt, tmp);\n    }\n\n    function spilt_parts(string memory cmd, string memory fn) internal pure returns(string memory, string memory, string memory, string memory){\n        strings.slice memory cmds = cmd.toSlice();\n        strings.slice memory fns = fn.toSlice();\n        strings.slice memory delim = \":\".toSlice();\n        string[] memory cmdp = new string[](2);\n        string[] memory fnp = new string[](2);\n        cmdp[0] = cmds.split(delim).toString();\n        cmdp[1] = cmds.toString();\n        fnp[0] = fns.split(delim).toString();\n        fnp[1] = fns.toString();\n        return (cmdp[0], cmdp[1], fnp[0], fnp[1]);\n    }\n}",
  "sourcePath": "/home/breakfast/Mon-IPFS/deployCont/truffle/contracts/IPFSlog.sol",
  "compiler": {
    "name": "solc",
    "version": "0.4.22+commit.4cb486ee.Emscripten.clang"
  },
  "schemaVersion": "3.0.16",
  "updatedAt": "2020-03-12T08:02:21.432Z",
  "devdoc": {
    "methods": {}
  },
  "userdoc": {
    "methods": {}
  }
}